:020000020000FC
:1002000040792430191202780018010204081020E5
:100210000FEF04B907B978E085E098E0A5E0B3E016
:10022000C2E062E051E041E0F2E0E0E0E70F34914B
:100230000E94560135B90E948001F2E0E0E0E80F2B
:1002400034910E945D0135B90E948001F2E0E0E046
:10025000E90F34910E94640135B90E948001F2E0F7
:10026000E0E0EA0F34910E946B0135B90E948001F1
:10027000F2E0E0E0EB0F34910E94720135B90E9488
:100280008001F2E0E0E0EC0F34910E94790135B991
:100290000E9480014A9541F65A9529F66A9511F611
:1002A000E9E07E1788F573950C941101DAE0F2E02D
:1002B000E0E0ED0F249128B90895DBE0F2E0E0E002
:1002C000ED0F249128B90895DCE0F2E0E0E0ED0FB5
:1002D000249128B90895DDE0F2E0E0E0ED0F2491EB
:1002E00028B90895DEE0F2E0E0E0ED0F249128B9AE
:1002F0000895DFE0F2E0E0E0ED0F249128B90895E1
:10030000FCE3FA95F1F7089570E08395E6E08E1727
:1003100010F40C94110170E080E09395E9E09E17D1
:1003200010F40C94110170E080E090E0A395E6E0F9
:10033000AE1710F40C94110170E080E090E0A0E0A2
:10034000B395E9E0BE1710F40C94110170E080E061
:1003500090E0A0E0B0E0C395E6E0CE1710F40C9476
:10036000110170E080E090E0A0E0B0E0C395E2E031
:10037000CE1710F40C941101E4E0BE1710F40C94A5
:10038000110170E080E090E0A0E0B0E0C0E00C94EB
:02039000110159
:00000001FF
